{
  "contractName": "IdentityManagement",
  "abi": [
    {
      "inputs": [],
      "stateMutability": "nonpayable",
      "type": "constructor"
    },
    {
      "anonymous": false,
      "inputs": [
        {
          "indexed": true,
          "internalType": "address",
          "name": "owner",
          "type": "address"
        },
        {
          "indexed": false,
          "internalType": "string",
          "name": "name",
          "type": "string"
        },
        {
          "indexed": false,
          "internalType": "string",
          "name": "email",
          "type": "string"
        },
        {
          "indexed": false,
          "internalType": "string",
          "name": "street",
          "type": "string"
        },
        {
          "indexed": false,
          "internalType": "string",
          "name": "country",
          "type": "string"
        },
        {
          "indexed": false,
          "internalType": "string",
          "name": "dateBirth",
          "type": "string"
        },
        {
          "indexed": false,
          "internalType": "string",
          "name": "status",
          "type": "string"
        },
        {
          "indexed": false,
          "internalType": "bool",
          "name": "active",
          "type": "bool"
        },
        {
          "indexed": false,
          "internalType": "uint256",
          "name": "createdAt",
          "type": "uint256"
        }
      ],
      "name": "IdentityCreated",
      "type": "event"
    },
    {
      "anonymous": false,
      "inputs": [
        {
          "indexed": true,
          "internalType": "address",
          "name": "owner",
          "type": "address"
        },
        {
          "indexed": false,
          "internalType": "string",
          "name": "name",
          "type": "string"
        },
        {
          "indexed": false,
          "internalType": "string",
          "name": "email",
          "type": "string"
        },
        {
          "indexed": false,
          "internalType": "string",
          "name": "street",
          "type": "string"
        },
        {
          "indexed": false,
          "internalType": "string",
          "name": "country",
          "type": "string"
        },
        {
          "indexed": false,
          "internalType": "string",
          "name": "dateBirth",
          "type": "string"
        },
        {
          "indexed": false,
          "internalType": "string",
          "name": "status",
          "type": "string"
        },
        {
          "indexed": false,
          "internalType": "bool",
          "name": "active",
          "type": "bool"
        }
      ],
      "name": "IdentityUpdated",
      "type": "event"
    },
    {
      "anonymous": false,
      "inputs": [
        {
          "indexed": true,
          "internalType": "address",
          "name": "stakeholder",
          "type": "address"
        }
      ],
      "name": "StakeholderAdded",
      "type": "event"
    },
    {
      "inputs": [
        {
          "internalType": "address",
          "name": "",
          "type": "address"
        }
      ],
      "name": "isStakeholder",
      "outputs": [
        {
          "internalType": "bool",
          "name": "",
          "type": "bool"
        }
      ],
      "stateMutability": "view",
      "type": "function"
    },
    {
      "inputs": [
        {
          "internalType": "address",
          "name": "_stakeholder",
          "type": "address"
        }
      ],
      "name": "addStakeholder",
      "outputs": [],
      "stateMutability": "nonpayable",
      "type": "function"
    },
    {
      "inputs": [
        {
          "internalType": "string",
          "name": "_name",
          "type": "string"
        },
        {
          "internalType": "string",
          "name": "_email",
          "type": "string"
        },
        {
          "internalType": "string",
          "name": "_street",
          "type": "string"
        },
        {
          "internalType": "string",
          "name": "_country",
          "type": "string"
        },
        {
          "internalType": "string",
          "name": "_dateBirth",
          "type": "string"
        },
        {
          "internalType": "string",
          "name": "_status",
          "type": "string"
        },
        {
          "internalType": "bool",
          "name": "_active",
          "type": "bool"
        }
      ],
      "name": "createIdentity",
      "outputs": [],
      "stateMutability": "nonpayable",
      "type": "function"
    },
    {
      "inputs": [
        {
          "internalType": "string",
          "name": "_name",
          "type": "string"
        },
        {
          "internalType": "string",
          "name": "_email",
          "type": "string"
        },
        {
          "internalType": "string",
          "name": "_street",
          "type": "string"
        },
        {
          "internalType": "string",
          "name": "_country",
          "type": "string"
        },
        {
          "internalType": "string",
          "name": "_dateBirth",
          "type": "string"
        },
        {
          "internalType": "string",
          "name": "_status",
          "type": "string"
        },
        {
          "internalType": "bool",
          "name": "_active",
          "type": "bool"
        }
      ],
      "name": "updateIdentity",
      "outputs": [],
      "stateMutability": "nonpayable",
      "type": "function"
    },
    {
      "inputs": [],
      "name": "getIdentity",
      "outputs": [
        {
          "internalType": "address",
          "name": "issuer",
          "type": "address"
        },
        {
          "internalType": "string",
          "name": "name",
          "type": "string"
        },
        {
          "internalType": "string",
          "name": "email",
          "type": "string"
        },
        {
          "internalType": "string",
          "name": "street",
          "type": "string"
        },
        {
          "internalType": "string",
          "name": "country",
          "type": "string"
        },
        {
          "internalType": "string",
          "name": "dateBirth",
          "type": "string"
        },
        {
          "internalType": "string",
          "name": "status",
          "type": "string"
        },
        {
          "internalType": "bool",
          "name": "active",
          "type": "bool"
        },
        {
          "internalType": "uint256",
          "name": "createdAt",
          "type": "uint256"
        }
      ],
      "stateMutability": "view",
      "type": "function"
    }
  ],
  "bytecode": "0x608060405234801561001057600080fd5b506001600a60003373ffffffffffffffffffffffffffffffffffffffff1673ffffffffffffffffffffffffffffffffffffffff16815260200190815260200160002060006101000a81548160ff0219169083151502179055506001600b60003373ffffffffffffffffffffffffffffffffffffffff1673ffffffffffffffffffffffffffffffffffffffff16815260200190815260200160002060006101000a81548160ff02191690831515021790555060008060006101000a81548160ff021916908315150217905550611661806100ea6000396000f3fe608060405234801561001057600080fd5b50600436106100575760003560e01c806336afc6fa1461005c5780633dbcd0a614610082578063b79dde711461009e578063e5c42fd1146100ba578063ef037b90146100d6575b600080fd5b610064610106565b60405161007999989796959493929190610bda565b60405180910390f35b61009c60048036038101906100979190610e06565b610561565b005b6100b860048036038101906100b39190610e06565b610781565b005b6100d460048036038101906100cf9190610f7c565b6108fe565b005b6100f060048036038101906100eb9190610f7c565b610ab5565b6040516100fd9190610fa9565b60405180910390f35b6000606080606080606080600080600b60003373ffffffffffffffffffffffffffffffffffffffff1673ffffffffffffffffffffffffffffffffffffffff16815260200190815260200160002060009054906101000a900460ff166101a0576040517f08c379a000000000000000000000000000000000000000000000000000000000815260040161019790611036565b60405180910390fd5b600160000160009054906101000a900473ffffffffffffffffffffffffffffffffffffffff166001800160016002016001600301600160040160016005016001600601600160070160009054906101000a900460ff1660016008015487805461020890611085565b80601f016020809104026020016040519081016040528092919081815260200182805461023490611085565b80156102815780601f1061025657610100808354040283529160200191610281565b820191906000526020600020905b81548152906001019060200180831161026457829003601f168201915b5050505050975086805461029490611085565b80601f01602080910402602001604051908101604052809291908181526020018280546102c090611085565b801561030d5780601f106102e25761010080835404028352916020019161030d565b820191906000526020600020905b8154815290600101906020018083116102f057829003601f168201915b5050505050965085805461032090611085565b80601f016020809104026020016040519081016040528092919081815260200182805461034c90611085565b80156103995780601f1061036e57610100808354040283529160200191610399565b820191906000526020600020905b81548152906001019060200180831161037c57829003601f168201915b505050505095508480546103ac90611085565b80601f01602080910402602001604051908101604052809291908181526020018280546103d890611085565b80156104255780601f106103fa57610100808354040283529160200191610425565b820191906000526020600020905b81548152906001019060200180831161040857829003601f168201915b5050505050945083805461043890611085565b80601f016020809104026020016040519081016040528092919081815260200182805461046490611085565b80156104b15780601f10610486576101008083540402835291602001916104b1565b820191906000526020600020905b81548152906001019060200180831161049457829003601f168201915b505050505093508280546104c490611085565b80601f01602080910402602001604051908101604052809291908181526020018280546104f090611085565b801561053d5780601f106105125761010080835404028352916020019161053d565b820191906000526020600020905b81548152906001019060200180831161052057829003601f168201915b50505050509250985098509850985098509850985098509850909192939495969798565b60008054906101000a900460ff16156105af576040517f08c379a00000000000000000000000000000000000000000000000000000000081526004016105a690611128565b60405180910390fd5b6040518061012001604052803373ffffffffffffffffffffffffffffffffffffffff168152602001888152602001878152602001868152602001858152602001848152602001838152602001821515815260200142815250600160008201518160000160006101000a81548173ffffffffffffffffffffffffffffffffffffffff021916908373ffffffffffffffffffffffffffffffffffffffff160217905550602082015181600101908161066591906112f4565b50604082015181600201908161067b91906112f4565b50606082015181600301908161069191906112f4565b5060808201518160040190816106a791906112f4565b5060a08201518160050190816106bd91906112f4565b5060c08201518160060190816106d391906112f4565b5060e08201518160070160006101000a81548160ff021916908315150217905550610100820151816008015590505060016000806101000a81548160ff0219169083151502179055503373ffffffffffffffffffffffffffffffffffffffff167f96ce7587689cdbd9fb2c53c519ff43f4cabd269762c15783adad1f15594deec788888888888888426040516107709897969594939291906113c6565b60405180910390a250505050505050565b600a60003373ffffffffffffffffffffffffffffffffffffffff1673ffffffffffffffffffffffffffffffffffffffff16815260200190815260200160002060009054906101000a900460ff1661080d576040517f08c379a0000000000000000000000000000000000000000000000000000000008152600401610804906114e0565b60405180910390fd5b8660018001908161081e91906112f4565b50856001600201908161083191906112f4565b50846001600301908161084491906112f4565b50836001600401908161085791906112f4565b50826001600501908161086a91906112f4565b50816001600601908161087d91906112f4565b5080600160070160006101000a81548160ff0219169083151502179055503373ffffffffffffffffffffffffffffffffffffffff167fc6eefbfd1739ab4df1d23c479fa926ff86a74bd5bb9a82271dba2e762685f7ee888888888888886040516108ed9796959493929190611500565b60405180910390a250505050505050565b600a60003373ffffffffffffffffffffffffffffffffffffffff1673ffffffffffffffffffffffffffffffffffffffff16815260200190815260200160002060009054906101000a900460ff1661098a576040517f08c379a0000000000000000000000000000000000000000000000000000000008152600401610981906114e0565b60405180910390fd5b600b60008273ffffffffffffffffffffffffffffffffffffffff1673ffffffffffffffffffffffffffffffffffffffff16815260200190815260200160002060009054906101000a900460ff1615610a17576040517f08c379a0000000000000000000000000000000000000000000000000000000008152600401610a0e9061160b565b60405180910390fd5b6001600b60008373ffffffffffffffffffffffffffffffffffffffff1673ffffffffffffffffffffffffffffffffffffffff16815260200190815260200160002060006101000a81548160ff0219169083151502179055508073ffffffffffffffffffffffffffffffffffffffff167fd9b802c55a7d0aabbc6554676754b5b4aabc8edf1d540b77812f81f6d4409ea160405160405180910390a250565b600b6020528060005260406000206000915054906101000a900460ff1681565b600073ffffffffffffffffffffffffffffffffffffffff82169050919050565b6000610b0082610ad5565b9050919050565b610b1081610af5565b82525050565b600081519050919050565b600082825260208201905092915050565b60005b83811015610b50578082015181840152602081019050610b35565b60008484015250505050565b6000601f19601f8301169050919050565b6000610b7882610b16565b610b828185610b21565b9350610b92818560208601610b32565b610b9b81610b5c565b840191505092915050565b60008115159050919050565b610bbb81610ba6565b82525050565b6000819050919050565b610bd481610bc1565b82525050565b600061012082019050610bf0600083018c610b07565b8181036020830152610c02818b610b6d565b90508181036040830152610c16818a610b6d565b90508181036060830152610c2a8189610b6d565b90508181036080830152610c3e8188610b6d565b905081810360a0830152610c528187610b6d565b905081810360c0830152610c668186610b6d565b9050610c7560e0830185610bb2565b610c83610100830184610bcb565b9a9950505050505050505050565b6000604051905090565b600080fd5b600080fd5b600080fd5b600080fd5b7f4e487b7100000000000000000000000000000000000000000000000000000000600052604160045260246000fd5b610ce782610b5c565b810181811067ffffffffffffffff82111715610d0657610d05610caf565b5b80604052505050565b6000610d19610c91565b9050610d258282610cde565b919050565b600067ffffffffffffffff821115610d4557610d44610caf565b5b610d4e82610b5c565b9050602081019050919050565b82818337600083830152505050565b6000610d7d610d7884610d2a565b610d0f565b905082815260208101848484011115610d9957610d98610caa565b5b610da4848285610d5b565b509392505050565b600082601f830112610dc157610dc0610ca5565b5b8135610dd1848260208601610d6a565b91505092915050565b610de381610ba6565b8114610dee57600080fd5b50565b600081359050610e0081610dda565b92915050565b600080600080600080600060e0888a031215610e2557610e24610c9b565b5b600088013567ffffffffffffffff811115610e4357610e42610ca0565b5b610e4f8a828b01610dac565b975050602088013567ffffffffffffffff811115610e7057610e6f610ca0565b5b610e7c8a828b01610dac565b965050604088013567ffffffffffffffff811115610e9d57610e9c610ca0565b5b610ea98a828b01610dac565b955050606088013567ffffffffffffffff811115610eca57610ec9610ca0565b5b610ed68a828b01610dac565b945050608088013567ffffffffffffffff811115610ef757610ef6610ca0565b5b610f038a828b01610dac565b93505060a088013567ffffffffffffffff811115610f2457610f23610ca0565b5b610f308a828b01610dac565b92505060c0610f418a828b01610df1565b91505092959891949750929550565b610f5981610af5565b8114610f6457600080fd5b50565b600081359050610f7681610f50565b92915050565b600060208284031215610f9257610f91610c9b565b5b6000610fa084828501610f67565b91505092915050565b6000602082019050610fbe6000830184610bb2565b92915050565b7f4f6e6c7920746865206964656e74697479207374616b65686f6c64657220636160008201527f6e20706572666f726d207468697320616374696f6e2e00000000000000000000602082015250565b6000611020603683610b21565b915061102b82610fc4565b604082019050919050565b6000602082019050818103600083015261104f81611013565b9050919050565b7f4e487b7100000000000000000000000000000000000000000000000000000000600052602260045260246000fd5b6000600282049050600182168061109d57607f821691505b6020821081036110b0576110af611056565b5b50919050565b7f4964656e746974792068617320616c7265616479206265656e2063726561746560008201527f642e000000000000000000000000000000000000000000000000000000000000602082015250565b6000611112602283610b21565b915061111d826110b6565b604082019050919050565b6000602082019050818103600083015261114181611105565b9050919050565b60008190508160005260206000209050919050565b60006020601f8301049050919050565b600082821b905092915050565b6000600883026111aa7fffffffffffffffffffffffffffffffffffffffffffffffffffffffffffffffff8261116d565b6111b4868361116d565b95508019841693508086168417925050509392505050565b6000819050919050565b60006111f16111ec6111e784610bc1565b6111cc565b610bc1565b9050919050565b6000819050919050565b61120b836111d6565b61121f611217826111f8565b84845461117a565b825550505050565b600090565b611234611227565b61123f818484611202565b505050565b5b818110156112635761125860008261122c565b600181019050611245565b5050565b601f8211156112a85761127981611148565b6112828461115d565b81016020851015611291578190505b6112a561129d8561115d565b830182611244565b50505b505050565b600082821c905092915050565b60006112cb600019846008026112ad565b1980831691505092915050565b60006112e483836112ba565b9150826002028217905092915050565b6112fd82610b16565b67ffffffffffffffff81111561131657611315610caf565b5b6113208254611085565b61132b828285611267565b600060209050601f83116001811461135e576000841561134c578287015190505b61135685826112d8565b8655506113be565b601f19841661136c86611148565b60005b828110156113945784890151825560018201915060208501945060208101905061136f565b868310156113b157848901516113ad601f8916826112ba565b8355505b6001600288020188555050505b505050505050565b60006101008201905081810360008301526113e1818b610b6d565b905081810360208301526113f5818a610b6d565b905081810360408301526114098189610b6d565b9050818103606083015261141d8188610b6d565b905081810360808301526114318187610b6d565b905081810360a08301526114458186610b6d565b905061145460c0830185610bb2565b61146160e0830184610bcb565b9998505050505050505050565b7f4f6e6c7920617574686f72697a656420697373756572732063616e207065726660008201527f6f726d207468697320616374696f6e2e00000000000000000000000000000000602082015250565b60006114ca603083610b21565b91506114d58261146e565b604082019050919050565b600060208201905081810360008301526114f9816114bd565b9050919050565b600060e082019050818103600083015261151a818a610b6d565b9050818103602083015261152e8189610b6d565b905081810360408301526115428188610b6d565b905081810360608301526115568187610b6d565b9050818103608083015261156a8186610b6d565b905081810360a083015261157e8185610b6d565b905061158d60c0830184610bb2565b98975050505050505050565b7f4164647265737320697320616c726561647920616e207374616b65686f6c646560008201527f722e000000000000000000000000000000000000000000000000000000000000602082015250565b60006115f5602283610b21565b915061160082611599565b604082019050919050565b60006020820190508181036000830152611624816115e8565b905091905056fea26469706673582212205c62b485c4a2a4d93a08c37539a50cf4ce09e7034142650580e558fdcbff559164736f6c63430008120033",
  "immutableReferences": {},
  "source": "// SPDX-License-Identifier: GPL-3.0\npragma solidity ^0.8.18;\n\ncontract IdentityManagement {\n    \n    struct Identity {\n        address issuer; // Alamat pengelola atau penerbit identitas\n        string name; // Nama pengguna\n        string email; // Email pengguna\n        string street; // Alamat jalan\n        string country; // Negara\n        string dateBirth; // Tanggal lahir\n        string status; // Status pengguna\n        bool active; // Status aktif/tidak aktif\n        uint256 createdAt; // Timestamp kapan identitas dibuat\n    }\n\n\n    // mapping(address => Identity) public identities;\n\n    bool private identityCreated;\n    Identity private identity;\n    mapping(address => bool) private  isIssuer;\n    mapping(address => bool) public isStakeholder;\n\n    event IdentityCreated(address indexed owner,string name,string email,string street,string country,string dateBirth,string status,bool active,uint256 createdAt);\n    event IdentityUpdated(address indexed owner, string name, string email,string street,string country,string dateBirth,string status,bool active);\n    event StakeholderAdded(address indexed stakeholder);\n\n\n    constructor() {\n        isIssuer[msg.sender] = true;\n        isStakeholder[msg.sender] = true;\n        identityCreated = false;\n    }\n\n    modifier onlyStakeholder() {\n        require(isStakeholder[msg.sender], \"Only the identity stakeholder can perform this action.\");\n        _;\n    }\n\n    modifier onlyIssuer() {\n        require(isIssuer[msg.sender], \"Only authorized issuers can perform this action.\");\n        _;\n    }\n\n    function addStakeholder(address _stakeholder) external onlyIssuer {\n        require(!isStakeholder[_stakeholder], \"Address is already an stakeholder.\");\n        isStakeholder[_stakeholder] = true;\n        emit StakeholderAdded(_stakeholder);\n    }\n\n    modifier notCreated() {\n        require(!identityCreated, \"Identity has already been created.\");\n        _;\n    }\n\n    function createIdentity(\n        string memory _name,\n        string memory _email,\n        string memory _street,\n        string memory _country,\n        string memory _dateBirth,\n        string memory _status,\n        bool _active) external notCreated {\n        identity = Identity({\n            issuer: msg.sender,\n            name: _name,\n            email: _email,\n            street: _street,\n            country: _country,\n            dateBirth: _dateBirth,\n            status: _status,\n            active: _active,\n            createdAt: block.timestamp // Menggunakan timestamp blok saat ini\n        });\n        identityCreated = true;\n        emit IdentityCreated(\n            msg.sender,\n            _name,\n            _email,\n            _street,\n            _country,\n            _dateBirth,\n            _status,\n            _active,\n            block.timestamp\n        );\n    }\n\n    function updateIdentity(\n        string memory _name,\n        string memory _email,\n        string memory _street,\n        string memory _country,\n        string memory _dateBirth,\n        string memory _status,\n        bool _active\n    ) external onlyIssuer {\n        identity.name = _name;\n        identity.email = _email;\n        identity.street = _street;\n        identity.country = _country;\n        identity.dateBirth = _dateBirth;\n        identity.status = _status;\n        identity.active = _active;\n        emit IdentityUpdated(\n            msg.sender,\n            _name,\n            _email,\n            _street,\n            _country,\n            _dateBirth,\n            _status,\n            _active\n        );\n    }\n\n\n\n    function getIdentity() external view onlyStakeholder returns (\n        address issuer,\n        string memory name,\n        string memory email,\n        string memory street,\n        string memory country,\n        string memory dateBirth,\n        string memory status,\n        bool active,\n        uint256 createdAt\n    ) {\n        return (\n            identity.issuer,\n            identity.name,\n            identity.email,\n            identity.street,\n            identity.country,\n            identity.dateBirth,\n            identity.status,\n            identity.active,\n            identity.createdAt\n        );\n    }\n    \n}\n",
  "sourcePath": "/Users/balaisertifikasielektronik/IdeaProjects/Github/medium/SimpleId/smartcontracts/contracts/IdentityManagement.sol",
  "compiler": {
    "name": "solc",
    "version": "0.8.18+commit.87f61d96.Emscripten.clang"
  },
  "schemaVersion": "3.4.16",
  "updatedAt": "2024-05-20T07:06:37.485Z",
  "devdoc": {
    "kind": "dev",
    "methods": {},
    "version": 1
  },
  "userdoc": {
    "kind": "user",
    "methods": {},
    "version": 1
  }
}